:020000040800F2
:1000000020090020890100088F110008C510000890
:100010008D1100088F020008AD14000800000000D8
:100020000000000000000000000000009311000824
:10003000C702000800000000911100089511000897
:10004000A3010008A3010008A3010008A301000800
:10005000A3010008A3010008A3010008A3010008F0
:10006000A3010008A3010008A3010008A3010008E0
:10007000A3010008A301000891020008A3010008E1
:10008000A3010008A3010008A3010008A3010008C0
:10009000A3010008A3010008A3010008A3010008B0
:1000A000A3010008A3010008A3010008A3010008A0
:1000B000A3010008A3010008A3010008A301000890
:1000C000A3010008A3010008A3010008A301000880
:1000D000A3010008A3010008A3010008A301000870
:1000E000A3010008A3010008A301000800F002F822
:1000F00000F03AF80AA090E8000C82448344AAF188
:100100000107DA4501D100F02FF8AFF2090EBAE885
:100110000F0013F0010F18BFFB1A43F0010318473B
:100120007415000094150000103A24BF78C878C1F7
:10013000FAD8520724BF30C830C144BF04680C60ED
:10014000704700000023002400250026103A28BF35
:1001500078C1FBD8520728BF30C148BF0B60704739
:100160001FB51FBD10B510BD00F058F81146FFF7C0
:10017000F7FF01F0EFF900F076F803B4FFF7F2FFB4
:1001800003BC00F07DF8000009488047094800479B
:10019000FEE7FEE7FEE7FEE7FEE7FEE7FEE7FEE737
:1001A000FEE7FEE704480549054A064B7047000094
:1001B000F5110008ED0000082003002020090020B0
:1001C00020050020200500204FF0000200B5134656
:1001D00094469646203922BFA0E80C50A0E80C5067
:1001E000B1F12001BFF4F7AF090728BFA0E80C5018
:1001F00048BF0CC05DF804EB890028BF40F8042B11
:1002000008BF704748BF20F8022B11F0804F18BF7D
:1002100000F8012B7047704770477047754600F033
:100220002BF8AE4605006946534620F00700854688
:1002300018B020B5FFF7B6FFBDE820404FF000062C
:100240004FF000074FF000084FF0000B21F00701BE
:10025000AC46ACE8C009ACE8C009ACE8C009ACE801
:10026000C0098D46704710B50446AFF300802046A4
:10027000BDE81040FFF781BF00487047BC02002076
:1002800001491820ABBEFEE7260002007047FEE7DA
:10029000014800F01BB800005800002030B590F86D
:1002A00040500124AC40C56B6C60046863604368D7
:1002B000102B036803D099600068C26030BD9A605B
:1002C0000068C16030BD704772B6FEE72DE9F05F8F
:1002D000C16B0C6801680B68D0F840C0042202FAB8
:1002E0000CF2494DDFF824A1494E4A4FDFF828B1FE
:1002F000DFF828E122422CD05A072AD50A68920654
:1003000003D40A6822F004020A600168A94201D1FC
:10031000042219E0514501D1402215E0B14202D139
:100320004FF4806210E0B94202D14FF480420BE0FA
:10033000594502D14FF4802206E0714502D14FF4B5
:10034000800201E04FF080622F4908394A60C16A9B
:100350003BE04FF0020808FA0CF818EA040F4FF0DF
:1003600000094FF0010235D05FEA837832D50B687F
:100370009B0605D40B6823F00A030B6080F821204C
:100380000168A94201D1022219E0514501D1202280
:1003900015E0B14202D14FF4007210E0B94202D12F
:1003A0004FF400520BE0594502D14FF4003206E001
:1003B000714502D14FF4001201E04FF00072124972
:1003C00008394A6080F82090816A00291AD0BDE877
:1003D000F05F0847082505FA0CF5254212D01B07E7
:1003E00010D50B6823F00E030B6090F84010C36B20
:1003F00002FA01F15960826380F8212080F8209090
:10040000016BE2E7BDE8F09F080002401C000240DB
:100410003000024044000240580002406C0002409C
:1004200030B528B308C8134914221944B1FBF2F1BE
:100430008900C16310498163022141771A6843F63C
:10044000F0718A43D0E900142143D0E902452C43DE
:1004500021430469214344692143846921431143B1
:10046000196000214163012242770177084630BDBF
:10047000012030BDF8FFFDBF0000024070B504460A
:1004800090F82000002501280CD0012084F82000DD
:1004900094F821600020012E06D084F82000022567
:1004A000284670BD022070BD022684F82160A0633A
:1004B0002068066826F0010606602046FFF7EEFE7B
:1004C000E06A00282068016802D041F00E0106E0D1
:1004D00021F0040101602068016841F00A01016017
:1004E0002068016841F001010160D9E770B5044658
:1004F00000F0FEF80546601C02D004480078044471
:1005000000F0F6F8401BA042FAD370BD00000020B6
:100510002DE9F84FDFF8B8910024A9F1040B234628
:100520000F2709F1040AABF1040EC9E00125A5402B
:100530002A40AA427DD1674ED1F804C0ACEB060830
:10054000B44532D014DCBCF1030F3AD009DCBCF165
:10055000000F2AD0BCF1010F1CD0BCF1020F31D129
:100560001DE0BCF1110F17D0BCF1120F2AD119E018
:10057000B8F5881F19D006DCB8F5803F15D0B8F55E
:10058000801F1FD111E0B8F5001F0ED0B8F5041F71
:1005900018D10AE0CB6815E0CB681B1D12E0CB68D0
:1005A00008330FE0CB680C330CE08B682BB1012BC8
:1005B0004FF0080303D0456104E0042302E0056125
:1005C00000E00023FF2A01D8064601E000F10406FE
:1005D0004FEA840501D9A5F12005D6F8008007FA75
:1005E00005FC28EA0C0803FA05F548EA0508C6F8F0
:1005F00000804D68ED0062D5374DAE6946F00106CA
:10060000AE61AD6924F0030605F001050095334D98
:1006100006EB050CDCF80850A607360F07FA06F8BB
:1006200025EA0805DFF8B880404503D14FF00008FF
:1006300017E044E0DFF8AC80404502D14FF00108FC
:100640000FE0DFF8A480404502D14FF0020808E037
:10065000DFF89880404502D14FF0030801E04FF0E9
:10066000040808FA06F848EA0508CCF808804D683E
:10067000D9F80060ED024D4601D5164300E09643DF
:100680002E604D68DAF80060AD02554601D516437C
:1006900000E096432E604D68DBF80060AD035D46D8
:1006A00001D5164300E096432E604D68DEF80060E9
:1006B000ED03754601D5164300E096432E60641C99
:1006C0000D682A46E5407FF431AFBDE8F88F0000A1
:1006D0000804014000001110001002400000014019
:1006E00000080140000C01400010014000140140CE
:1006F00001488068704700000000002002488168BF
:10070000027811448160704700000020074810B54E
:10071000016841F010010160032000F075F80F201E
:1007200000F006F800F024F8002010BD0020024080
:1007300070B50D4D04464FF47A712878B1FBF0F096
:100740000A490968B1FBF0F000F0BCFA48B9102C76
:1007500007D200222146501E00F036F800206C60BF
:1007600070BD012070BD0000000000200C000020C2
:100770000C4808B5816941F001018161816901F08E
:1007800001010091C16941F08051C161C06900F06F
:10079000805000900448416821F0E06141F0007110
:1007A000416008BD0010024000000140002809DB44
:1007B00000F01F02012191404009800000F1E0207B
:1007C000C0F8001170470000F0B40E4B1B680C46D7
:1007D000C3F30223C3F10705042D00D90425191D15
:1007E000072901D2002300E0DB1E012606FA05F1ED
:1007F000491E214099409E40761E16403143F0BC70
:1008000000F055BE0CED00E0064900F00702086854
:100810004FF6FF03184040EA0220034A10430860E5
:10082000704700000CED00E00000FA052DE9F047EC
:100830000F46050061D0434E306800F00700B84213
:1008400009D2306820F0070038433060306800F08B
:100850000700B84251D128683B4C810712D54007A8
:1008600003D5606840F4E06060602878000703D535
:10087000606840F4605060606068A96820F0F00033
:10088000084360602878C00728D06868012810D025
:100890002168022810D0890700292EDA616821F02A
:1008A000030101436160FFF723FF804641F288396D
:1008B0000DE021688903EFE78901EDE7FFF718FFF5
:1008C000A0EB0801494502D90320BDE8F087606824
:1008D000696800F00C00B0EB810FEFD1306800F0D8
:1008E0000700B8420BD9306820F007003843306069
:1008F000306800F00700B84201D00120E5E7287811
:10090000400705D56068E96820F4E060084360604E
:100910002878000706D56068296920F4605040EA0D
:10092000C100606000F018F86168084AC1F3031163
:10093000515CC8400649086006480068FFF7F8FEA9
:100940000020C2E700200240001002408416000888
:100950000C000020040000200E4A51680E4801F0EF
:100960000C03042B11D0082B0FD10C48C1F3834387
:10097000C903C05C0AD55168084AC1F34041921EC0
:10098000515C054A5043B0FBF1F0704704494843BD
:10099000704700000010024000127A007416000830
:1009A00000093D002DE9F84F040070D02078C04DBB
:1009B000C00749D06868C0F38100012807D0686883
:1009C000C0F38100022809D16868C00306D52868F1
:1009D000800339D560680028E7D035E06068B0F55D
:1009E000803F0BD010B1B0F5A02F11D0286820F4B3
:1009F00080302860286820F4802002E0286840F4D5
:100A000080302860606890B1FFF772FE06460AE009
:100A1000286840F480202860F0E700BFFFF768FEF8
:100A2000801B642873D828688003F7D50CE0FFF793
:100A30005FFE064605E000BFFFF75AFE801B6428F4
:100A4000F0D828688003F7D420789A4E80074FF0BA
:100A500001094FF0000839D5686810F00C0F07D075
:100A60006868C0F38100022809D16868C00306D411
:100A70002868800714D52069012808D110E0206972
:100A8000B0B1C6F80090FFF733FE074605E00AE173
:100A9000FFF72EFEC01B0228C4D828688007F7D5B0
:100AA0002868616920F0F80040EAC10028600DE084
:100AB000C6F80080FFF71CFE074604E0FFF718FEAB
:100AC000C01B022823D828688007F7D420780007A5
:100AD0002CD57948A169D9B1C0F80090FFF708FE7C
:100AE000074604E0FFF704FEC01B02280FD8686A1F
:100AF0008007F7D571484FF4FA510068B0FBF1F068
:100B0000009000BF0098411E0091FAD20EE080E0F4
:100B1000C0F80080FFF7ECFD074604E0FFF7E8FDB2
:100B2000C01B022875D8686A8007F7D42078400770
:100B300060D5E8690027C00008D4E86940F080501B
:100B4000E861E869012700F0805000905C48016886
:100B5000C90513D40168834641F480710160FFF731
:100B6000C7FD824606E000BFFFF7C2FDA0EB0A000A
:100B700064284ED8DBF80000C005F5D5E0680128F0
:100B80000AD008B1052813D0286A20F00100286295
:100B9000286A20F0040002E0286A40F00100286280
:100BA000E06841F2883B98B1FFF7A2FD82460BE076
:100BB000286A40F004002862EEE700BFFFF798FDC6
:100BC000A0EB0A0159455AD8286A8007F6D50CE0EF
:100BD000FFF78EFD824605E0FFF78AFDA0EB0A01D4
:100BE00059454CD8286A8007F6D41FB1E86920F02F
:100BF0008050E861E06988B36968C1F38101022926
:100C000044D00228C6F8608004D0FFF771FD044686
:100C100038E034E0FFF76CFD074604E0FFF768FDBD
:100C2000C01B02282BD828688001F7D4206AB0F5B1
:100C3000803F05D16868A16820F4003008436860EF
:100C4000D4E908010843696821F474110843686015
:100C5000C6F86090FFF74CFD044606E025E000BFB3
:100C6000FFF746FD001B022809D828688001F7D548
:100C70001BE000BFFFF73CFD001B022802D9032048
:100C8000BDE8F88F28688001F4D40EE00128F7D081
:100C90006868226A00F48031914204D1616A00F4EC
:100CA0007010884201D00120EAE70020E8E7000048
:100CB0000010024000004242800442420C0000202A
:100CC0000070004010B5401EB0F1807F01D30120BC
:100CD00010BD4FF0E02460610F21601700F0E7FBCA
:100CE0000020A06107202061002010BD70B590F8A1
:100CF0003C20012A26D0012480F83C40022280F8C2
:100D00003D2003685A689D6822F070060A683243E5
:100D10005A600D4B02689A4208D0B2F1804F05D05C
:100D20000A4B9A4202D00A4B9A4204D1496825F0F4
:100D300080031943916080F83D40002180F83C1009
:100D4000084670BD022070BD002C01400004004028
:100D5000000800407047000000B585B000210091F8
:100D600001910291039100680B49884212D10B480E
:100D7000816941F0080181618069694600F00800DD
:100D800004908020009002200190032003900448EA
:100D9000FFF7BEFB05B000BD000800400010024098
:100DA000000C014070B5044690F83C0000260D464A
:100DB00001280FD0012084F83C006AB1042A1DD01C
:100DC000082A2FD00C2A3FD00126002084F83C00AE
:100DD000304670BD022070BD206800F0C5FA206862
:100DE000816941F0080181612068816921F0040175
:100DF0008161206881692A69114311E0206800F04F
:100E0000DBFA2068816941F40061816120688169B1
:100E100021F480618161206881692A6941EA0221A7
:100E20008161D2E7206800F0F3FA2068C16941F0DF
:100E30000801C1612068C16921F00401C161206815
:100E4000C1692A69114311E0206800F00DFB206898
:100E5000C16941F40061C1612068C16921F4806108
:100E6000C1612068C1692A6941EA0221C161ACE718
:100E700010B5040003D094F83D0010B107E0012044
:100E800010BD002084F83C00204600F01FF802202E
:100E900084F83D00211D206800F0AEF9012084F89F
:100EA000460084F83E0084F83F0084F8400084F84F
:100EB000410084F8420084F8430084F8440084F838
:100EC000450084F83D00002010BD000038B50546FF
:100ED0000068124988421FD11148C16941F00401DC
:100EE000C161C069104C00F0040000900D48206002
:100EF0001020606000208021C4E9020149002161C6
:100F00008900C4E90510E0612046FFF789FA08B1BD
:100F1000FFF7DAF9AC62656238BD000000080040F6
:100F20000010024044000240580000207047704703
:100F30002DE9F04117460D0004464FF000060CD095
:100F4000042D11D0082D16D094F84100022819D094
:100F500094F84100012818D07CE094F83E00022863
:100F600010D094F83E00F5E794F83F00022809D02D
:100F700094F83F00EEE794F84000022802D094F87D
:100F80004000E7E70220BDE8F081002F62D0002B8F
:100F900060D04649464ADFF81CC102204DB1042DFD
:100FA00018D0082D27D084F841000C2D44D00126FC
:100FB00079E084F83E00606A8162606A3946C26204
:100FC000606AC0F830C02268606A3432FFF756FAAF
:100FD00088BB21E084F83F00A06A8162A06A39469C
:100FE000C262A06AC0F830C02268A06A3832FFF737
:100FF00045FA00BB15E084F84000E06A8162E06ACF
:101000003946C262E06AC0F830C02268E06A3C3209
:10101000FFF734FA78B909E02068C16841F400713B
:101020001EE02068C16841F4806119E02068C16851
:1010300041F4006114E00DE0206B8162206B3946C1
:10104000C262206BC0F830C02268206B4032FFF7CC
:1010500015FA08B1012096E72068C16841F4805173
:10106000C16001222946206800F0FCF8124920687E
:10107000884203D1426C42F40042426420688842B4
:1010800008D0B0F1804F05D00C49884202D00C49FD
:10109000884204D1816801F00701062903D0016864
:1010A00041F00101016030466DE700007F12000849
:1010B000DD12000815130008002C01400004004058
:1010C00000080040FEE70000094808B5416941F00A
:1010D000010141614069002200F0010000901146C9
:1010E0000E20FFF771FBBDE808400E20FFF75EBB46
:1010F00000100240094808B5816941F0040181618E
:10110000816901F004010091816941F00801816168
:10111000806900F00800009008BD00000010024047
:1011200010B58AB0002407941C2168460894FFF784
:101130004BF815481349C0E900144F21C0E902419A
:1011400004618461FFF794FE08B1FFF7BDF80794CE
:1011500007A90D480894FFF7C9FD08B1FFF7B4F8D7
:101160006020CDE9000402940422694606480494F4
:10117000FFF718FE08B1FFF7A7F80348FFF7ECFDEB
:101180000AB010BD0008004010000020FEE7FEE796
:1011900070477047FFF7B2BA30B58FB02821684664
:1011A000FFF712F814210AA8FFF70EF80225012014
:1011B000049000951020059000244FF46010CDE9B4
:1011C000084007956846FFF7EDFB08B172B6FEE7E9
:1011D0000F20CDE90A054FF48060CDE90C400221D3
:1011E0000AA80E94FFF722FB002801D072B6FEE792
:1011F0000FB030BD70470000F0B50268164B174CB9
:10120000174D4FF08047984205D0B84203D0A04216
:1012100001D0A84203D122F070064A6832439842B6
:1012200005D0B84203D0A04201D0A84203D122F495
:101230004074CA6822434C6922F080022243026053
:101240008A68C2620A688262984201D109690163B0
:1012500001214161F0BD0000002C0140000400406C
:101260000008004010B501F01F030121046A9940F5
:101270008C430462016A9A401143016210BD10B5AB
:10128000446A0121626A824205D121778069F8B9F6
:1012900084F83E101CE0A26A824206D10222227724
:1012A0008069A8B984F83F1012E0E26A824206D150
:1012B00004222277806958B984F8401008E0226B34
:1012C000824205D108222277806908B984F841104A
:1012D0002046FFF72BFE0020207710BD10B5446A92
:1012E000616A814201D101200DE0A16A814201D1F0
:1012F000022008E0E16A814201D1042003E0216B71
:10130000814201D1082020772046FFF710FE0020FF
:10131000207710BD10B5446A0121626A824203D170
:10132000217784F83E1019E0A26A824204D102209B
:10133000207784F83F1011E0E26A824204D1042051
:10134000207784F8401009E0226B824204D1082003
:10135000207784F8411001E084F83D102046FFF723
:10136000F9FC0020207710BD30B5036A026A22F034
:10137000010202624268846924F073050C682C4300
:1013800023F002058B682B430A4DA8420BD123F0B2
:101390000805CB6822F440722B434D6923F0040307
:1013A00015438A692A434260846149684163036244
:1013B00030BD0000002C014030B5026A036A23F002
:1013C00010030362436884690D6824F4E64444EA28
:1013D00005248D6822F0200242EA05120B4DA84236
:1013E0000ED1CD6822F0800242EA05124D6923F445
:1013F000406343EA85038D6922F0400243EA850396
:101400004360846149688163026230BD002C014001
:1014100030B5036A026A22F4807202624268C469CB
:1014200023F4007324F073050C682C438D6843EAA1
:1014300005230C4DA8420ED1CD6823F4006343EA86
:1014400005234D6922F4405242EA05128D6923F4C6
:10145000806342EA05124260C4614968C163036265
:1014600030BD0000002C014030B5046A026A22F44D
:10147000805202624268C3690D6823F4E64343EA7E
:1014800005238D6824F4005444EA0534064DA8422F
:1014900004D14D6922F4804242EA85124260C36160
:1014A00049680164046230BD002C0140FEE7090771
:1014B000090E002804DB00F1E02080F800147047DA
:1014C00000F00F0000F1E02080F8141D704710B507
:1014D000002400231A461946204600F011F8641C27
:1014E000E4B2082CF5D310BD4FF48873024A0421EE
:1014F0000248FFF71DBD00009C00002010000020E6
:1015000070B5134C00EB400004EB00140020A03435
:1015100002FA00F52D0601D5362500E01A2524F83B
:10152000105001FA00F52D0601D5362600E01A26E6
:1015300004EB40052E8203FA00F6360601D5362666
:1015400000E01A26401C80B22E840828E0D370BD2B
:101550009C0000208CB0FFF7D9F8FFF71DFEFFF7C5
:10156000C9FDFFF7B1FDFFF7DBFDFFF7B0FF00247A
:101570000494A1460594069407940894254604AE65
:1015800006AF0DF1200809947B5D18F80520715D08
:101590002846FFF7B5FF6D1CEDB2082DF4D3FF20F0
:1015A000305508F8040038558DF818908DF81090D3
:1015B0008DF820900A20FEF799FF9DF8100018B1D1
:1015C000FF2814D018B11DE09DF8201029B19DF816
:1015D0002010FF2913D019B114E09DF8181021B183
:1015E0009DF81810FF291FD00CE0002434E09DF86E
:1015F000201039B99DF8181021B9012430E09DF868
:10160000181039B144B3012C2AD0022C03D0032C7A
:101610000BD00FE002249DF82000401E8DF8200022
:101620009DF81800401C03E003249DF81800401E9C
:101630008DF818005FF000059DF818309DF8202007
:101640009DF810102846FFF75BFF6D1CEDB2082DCA
:10165000F2D3FFF749FFADE7401C8DF81000E9E732
:10166000401E8DF810009DF82000401C8DF82000D1
:10167000E0E7010202030405060708090A0B0C0D46
:101680000E0F101000000000000000000102030413
:1016900006070809B416000800000020100000002A
:1016A00028010008C41600081000002010090000DE
:1016B00044010008010000001000000000000000CC
:0416C0000024F4000E
:04000005080000ED02
:00000001FF
