:020000040800F2
:100000000006002001010008D71100080D110008AA
:10001000D51100086D010008E91400080000000077
:10002000000000000000000000000000DB110008DC
:10003000A701000800000000D9110008DD11000828
:100040001B0100081B0100081B0100081B01000820
:100050001B0100081B0100081B0100081B01000810
:100060001B0100081B0100081B0100081B01000800
:100070001B0100081B010008710100081B0100089A
:100080001B0100081B0100081B0100081B010008E0
:100090001B0100081B0100081B0100081B010008D0
:1000A0001B0100081B0100081B0100081B010008C0
:1000B0001B0100081B0100081B0100081B010008B0
:1000C0001B0100081B0100081B0100081B010008A0
:1000D0001B0100081B0100081B0100081B01000890
:1000E0001B0100081B0100081B010008DFF80CD0F1
:1000F00000F02AF8004800476916000800060020B2
:100100000648804706480047FEE7FEE7FEE7FEE7B1
:10011000FEE7FEE7FEE7FEE7FEE7FEE73112000836
:10012000ED000008D2B201E000F8012B491EFBD21D
:1001300070470022F6E710B513460A4604461946F2
:10014000FFF7F0FF204610BD064C074D06E0E068C3
:1001500040F0010394E8070098471034AC42F6D30E
:10016000FFF7C8FF2C1700084C170008FEE7000037
:10017000014800F067B800005800002030B590F842
:1001800040500124AC40C56B6C60046863604368F8
:10019000102B036803D099600068C26030BD9A607C
:1001A0000068C16030BD704772B6FEE710B590F8C8
:1001B00021100024022903D00421816301243DE0A1
:1001C00001680A6822F00E020A6001680A6822F0DB
:1001D00001020A601A4A0168914201D1012121E01D
:1001E000174A1432914201D110211BE0144A2832DF
:1001F000914201D1891515E0114A3C32914201D159
:1002000089140FE00E4A5032914202D14FF48031EE
:1002100008E00B4A6432914202D14FF4801101E0B0
:100220004FF08071064A083A5160012180F8211090
:10023000002180F82010416B01B18847204610BD95
:10024000080002402DE9F05FC16B0C6801680B6883
:10025000D0F840C0042202FA0CF2494DDFF824A184
:10026000494E4A4FDFF828B1DFF828E122422CD06E
:100270005A072AD50A68920603D40A6822F00402B3
:100280000A600168A94201D1042219E0514501D157
:10029000402215E0B14202D14FF4806210E0B94231
:1002A00002D14FF480420BE0594502D14FF4802235
:1002B00006E0714502D14FF4800201E04FF0806208
:1002C0002F4908394A60C16A3BE04FF0020808FA3A
:1002D0000CF818EA040F4FF000094FF0010235D076
:1002E0005FEA837832D50B689B0605D40B6823F050
:1002F0000A030B6080F821200168A94201D1022283
:1003000019E0514501D1202215E0B14202D14FF44C
:10031000007210E0B94202D14FF400520BE059458F
:1003200002D14FF4003206E0714502D14FF40012C1
:1003300001E04FF00072124908394A6080F82090BD
:10034000816A00291AD0BDE8F05F0847082505FA40
:100350000CF5254212D01B0710D50B6823F00E03B5
:100360000B6090F84010C36B02FA01F15960826390
:1003700080F8212080F82090016BE2E7BDE8F09F33
:10038000080002401C0002403000024044000240CD
:10039000580002406C00024030B528B308C8134929
:1003A00014221944B1FBF2F18900C1631049816341
:1003B000022141771A6843F6F0718A43D0E90014AC
:1003C0002143D0E902452C43214304692143446978
:1003D00021438469214311431960002141630122B3
:1003E00042770177084630BD012030BDF8FFFDBFE0
:1003F0000000024070B5044690F820000025012856
:100400000CD0012084F8200094F821600020012EF7
:1004100006D084F820000225284670BD022070BD59
:10042000022684F82160A0632068066826F0010691
:1004300006602046FFF7A2FEE06A002820680168F7
:1004400002D041F00E0106E021F0040101602068B5
:10045000016841F00A0101602068016841F0010172
:100460000160D9E770B5044600F0FEF80546601C4F
:1004700002D004480078044400F0F6F8401BA04283
:10048000FAD370BD000000202DE9F84FDFF8B891D5
:100490000024A9F1040B23460F2709F1040AABF14C
:1004A000040EC9E00125A5402A40AA427DD1674E2D
:1004B000D1F804C0ACEB0608B44532D014DCBCF172
:1004C000030F3AD009DCBCF1000F2AD0BCF1010FB8
:1004D0001CD0BCF1020F31D11DE0BCF1110F17D0BF
:1004E000BCF1120F2AD119E0B8F5881F19D006DC2B
:1004F000B8F5803F15D0B8F5801F1FD111E0B8F5D1
:10050000001F0ED0B8F5041F18D10AE0CB6815E023
:10051000CB681B1D12E0CB6808330FE0CB680C33AF
:100520000CE08B682BB1012B4FF0080303D0456121
:1005300004E0042302E0056100E00023FF2A01D863
:10054000064601E000F104064FEA840501D9A5F151
:100550002005D6F8008007FA05FC28EA0C0803FA03
:1005600005F548EA0508C6F800804D68ED0062D53B
:10057000374DAE6946F00106AE61AD6924F0030661
:1005800005F001050095334D06EB050CDCF808502D
:10059000A607360F07FA06F825EA0805DFF8B8803F
:1005A000404503D14FF0000817E044E0DFF8AC808D
:1005B000404502D14FF001080FE0DFF8A48040452C
:1005C00002D14FF0020808E0DFF89880404502D1E0
:1005D0004FF0030801E04FF0040808FA06F848EA73
:1005E0000508CCF808804D68D9F80060ED024D464A
:1005F00001D5164300E096432E604D68DAF800609E
:10060000AD02554601D5164300E096432E604D6875
:10061000DBF80060AD035D4601D5164300E096436C
:100620002E604D68DEF80060ED03754601D5164377
:1006300000E096432E60641C0D682A46E5407FF476
:1006400031AFBDE8F88F0000080401400000111030
:10065000001002400000014000080140000C014071
:1006600000100140001401400148806870470000FC
:1006700000000020024881680278114481607047C0
:1006800000000020074810B5016841F0100101602A
:10069000032000F075F80F2000F006F800F024F8B1
:1006A000002010BD0020024070B50D4D04464FF4EF
:1006B0007A712878B1FBF0F00A490968B1FBF0F0D3
:1006C00000F0BCFA48B9102C07D200222146501E77
:1006D00000F036F800206C6070BD012070BD000095
:1006E000000000200C0000200C4808B5816941F092
:1006F00001018161816901F001010091C16941F04D
:100700008051C161C06900F0805000900448416888
:1007100021F0E06141F00071416008BD001002402D
:1007200000000140002809DB00F01F020121914078
:100730004009800000F1E020C0F80011704700007F
:10074000F0B40E4B1B680C46C3F30223C3F107053C
:10075000042D00D90425191D072901D2002300E02A
:10076000DB1E012606FA05F1491E214099409E40F4
:10077000761E16403143F0BC00F056BF0CED00E091
:10078000064900F0070208684FF6FF03184040EAE8
:100790000220034A10430860704700000CED00E09F
:1007A0000000FA052DE9F0470F46050061D0434EE1
:1007B000306800F00700B84209D2306820F0070026
:1007C00038433060306800F00700B84251D12868E3
:1007D0003B4C810712D5400703D5606840F4E060C8
:1007E00060602878000703D5606840F4605060605E
:1007F0006068A96820F0F000084360602878C007AE
:1008000028D06868012810D02168022810D08907F4
:1008100000292EDA616821F0030101436160FFF7CE
:1008200023FF804641F288390DE021688903EFE714
:100830008901EDE7FFF718FFA0EB0801494502D950
:100840000320BDE8F0876068696800F00C00B0EB39
:10085000810FEFD1306800F00700B8420BD9306843
:1008600020F0070038433060306800F00700B842DD
:1008700001D00120E5E72878400705D56068E968E0
:1008800020F4E060084360602878000706D56068BF
:10089000296920F4605040EAC100606000F018F857
:1008A0006168084AC1F30311515CC84006490860F9
:1008B00006480068FFF7F8FE0020C2E7002002406B
:1008C000001002401A1700080C000020040000204D
:1008D0000E4A51680E4801F00C03042B11D0082B6E
:1008E0000FD10C48C1F38343C903C05C0AD55168DA
:1008F000084AC1F34041921E515C054A5043B0FB87
:10090000F1F070470449484370470000001002406E
:1009100000127A000A17000800093D002DE9F84F7F
:10092000040070D02078C04DC00749D06868C0F37B
:100930008100012807D06868C0F38100022809D12E
:100940006868C00306D52868800339D56068002828
:10095000E7D035E06068B0F5803F0BD010B1B0F55E
:10096000A02F11D0286820F480302860286820F457
:10097000802002E0286840F480302860606890B1F0
:10098000FFF772FE06460AE0286840F480202860DF
:10099000F0E700BFFFF768FE801B642873D8286863
:1009A0008003F7D50CE0FFF75FFE064605E000BFC9
:1009B000FFF75AFE801B6428F0D828688003F7D41C
:1009C00020789A4E80074FF001094FF0000839D582
:1009D000686810F00C0F07D06868C0F38100022827
:1009E00009D16868C00306D42868800714D5206937
:1009F000012808D110E02069B0B1C6F80090FFF7D7
:100A000033FE074605E00AE1FFF72EFEC01B022871
:100A1000C4D828688007F7D52868616920F0F800F5
:100A200040EAC10028600DE0C6F80080FFF71CFE18
:100A3000074604E0FFF718FEC01B022823D82868E9
:100A40008007F7D4207800072CD57948A169D9B15F
:100A5000C0F80090FFF708FE074604E0FFF704FE29
:100A6000C01B02280FD8686A8007F7D571484FF479
:100A7000FA510068B0FBF1F0009000BF0098411EF1
:100A80000091FAD20EE080E0C0F80080FFF7ECFDA4
:100A9000074604E0FFF7E8FDC01B022875D8686A26
:100AA0008007F7D42078400760D5E8690027C000A8
:100AB00008D4E86940F08050E861E869012700F057
:100AC000805000905C480168C90513D401688346D2
:100AD00041F480710160FFF7C7FD824606E000BF68
:100AE000FFF7C2FDA0EB0A0064284ED8DBF8000037
:100AF000C005F5D5E06801280AD008B1052813D053
:100B0000286A20F001002862286A20F0040002E030
:100B1000286A40F001002862E06841F2883B98B101
:100B2000FFF7A2FD82460BE0286A40F0040028622D
:100B3000EEE700BFFFF798FDA0EB0A0159455AD830
:100B4000286A8007F6D50CE0FFF78EFD824605E0A7
:100B5000FFF78AFDA0EB0A0159454CD8286A8007A7
:100B6000F6D41FB1E86920F08050E861E06988B3ED
:100B70006968C1F38101022944D00228C6F8608067
:100B800004D0FFF771FD044638E034E0FFF76CFD58
:100B9000074604E0FFF768FDC01B02282BD8286831
:100BA0008001F7D4206AB0F5803F05D16868A1685C
:100BB00020F4003008436860D4E9080108436968FC
:100BC00021F4741108436860C6F86090FFF74CFD8B
:100BD000044606E025E000BFFFF746FD001B0228A3
:100BE00009D828688001F7D51BE000BFFFF73CFD5E
:100BF000001B022802D90320BDE8F88F2868800175
:100C0000F4D40EE00128F7D06868226A00F480313D
:100C1000914204D1616A00F47010884201D0012031
:100C2000EAE70020E8E7000000100240000042422E
:100C3000800442420C0000200070004010B5401EAD
:100C4000B0F1807F01D3012010BD4FF0E02460613E
:100C50000F21601700F0E8FC0020A0610720206150
:100C6000002010BD70B590F83C20012A26D0012448
:100C700080F83C40022280F83D2003685A689D6855
:100C800022F070060A6832435A600D4B02689A429D
:100C900008D0B2F1804F05D00A4B9A4202D00A4BDD
:100CA0009A4204D1496825F080031943916080F885
:100CB0003D40002180F83C10084670BD022070BD08
:100CC000002C014000040040000800407047000074
:100CD00000B585B000210091019102910391006857
:100CE0000B49884211D10B48816941F008018161AB
:100CF0008069694600F0080004908020009002207E
:100D0000019003900448FFF7BFFB05B000BD000051
:100D10000008004000100240000C014070B504467D
:100D200090F83C0000260D4601280FD0012084F8E1
:100D30003C006AB1042A1DD0082A2FD00C2A3FD0CB
:100D40000126002084F83C00304670BD022070BDB2
:100D5000206800F027FB2068816941F0080181616B
:100D60002068816921F004018161206881692A6914
:100D7000114311E0206800F03DFB2068816941F4D7
:100D8000006181612068816921F48061816120684E
:100D900081692A6941EA02218161D2E7206800F075
:100DA00055FB2068C16941F00801C1612068C16933
:100DB00021F00401C1612068C1692A69114311E071
:100DC000206800F06FFB2068C16941F40061C161D7
:100DD0002068C16921F48061C1612068C1692A6904
:100DE00041EA0221C161ACE710B5040003D094F8D8
:100DF0003D0010B107E0012010BD002084F83C0048
:100E0000204600F01FF8022084F83D00211D2068D4
:100E100000F010FA012084F8460084F83E0084F8BF
:100E20003F0084F8400084F8410084F8420084F8D0
:100E3000430084F8440084F8450084F83D00002015
:100E400010BD000038B5054600681249884220D11F
:100E50001148C16941F00401C161C069104C00F042
:100E6000040000900D482060102060600020802168
:100E7000C4E9020149002161890061612021C4E9BE
:100E800006102046FFF788FA08B1FFF78DF9AC622B
:100E9000656238BD00080040001002404400024076
:100EA000580000200421014800F0CEB810000020B6
:100EB000704700002DE9F04117460D0004464FF041
:100EC00000060CD0042D11D0082D16D094F8410046
:100ED000022819D094F84100012818D07CE094F839
:100EE0003E00022810D094F83E00F5E794F83F0049
:100EF000022809D094F83F00EEE794F84000022859
:100F000002D094F84000E7E70220BDE8F081002F0E
:100F100062D0002B60D04649464ADFF81CC102204F
:100F20004DB1042D18D0082D27D084F841000C2D88
:100F300044D0012679E084F83E00606A8162606AEC
:100F40003946C262606AC0F830C02268606A3432D2
:100F5000FFF750FA88BB21E084F83F00A06A816265
:100F6000A06A3946C262A06AC0F830C02268A06A8E
:100F70003832FFF73FFA00BB15E084F84000E06A22
:100F80008162E06A3946C262E06AC0F830C0226815
:100F9000E06A3C32FFF72EFA78B909E02068C168B0
:100FA00041F400711EE02068C16841F4806119E0DD
:100FB0002068C16841F4006114E00DE0206B81629B
:100FC000206B3946C262206BC0F830C02268206BAB
:100FD0004032FFF70FFA08B1012096E72068C16898
:100FE00041F48051C16001222946206800F058F97F
:100FF00012492068884203D1426C42F400424264A4
:101000002068884208D0B0F1804F05D00C49884252
:1010100002D00C49884204D1816801F007010629F9
:1010200003D0016841F00101016030466DE7000026
:10103000BB1200081913000851130008002C0140CE
:10104000000400400008004070B50D0004464FF059
:10105000000607D0042D0CD0082D11D00C2D16D071
:10106000012645E02068C16821F40071C160606A12
:1010700013E02068C16821F48061C160A06A0CE0BF
:101080002068C16821F40061C160E06A05E0206861
:10109000C16821F48051C160206BFFF787F80022FE
:1010A0002946206800F0FCF8174B41F21111206826
:1010B0008A10984209D1036A0B4206D1036A13428F
:1010C00003D1436C23F4004343642068036A0B425A
:1010D00006D1016A114203D1016821F001010160CA
:1010E00001203DB1042D08D0082D09D084F841001D
:1010F000304670BD84F83E00FAE784F83F00F7E719
:1011000084F84000F4E70000002C0140FEE70000F6
:10111000094808B5416941F0010141614069002277
:1011200000F00100009011460E20FFF709FBBDE81A
:1011300008400E20FFF7F6BA00100240094808B533
:10114000816941F004018161816901F0040100912C
:10115000816941F008018161806900F00800009018
:1011600008BD00000010024010B58AB000240794AA
:101170001C2168460894FEF7DCFF15481349C0E9B6
:1011800000140A21C0E9024104618461FFF72CFECA
:1011900008B1FFF709F8079407A90D480894FFF76D
:1011A00061FD08B1FFF700F86020CDE9000402946A
:1011B0000422694606480494FFF7B0FD08B1FEF723
:1011C000F3FF0348FFF784FD0AB010BD000800409C
:1011D00010000020FEE7FEE770477047FFF74ABAAD
:1011E00010B590B028216846FEF7A3FF14210AA885
:1011F000FEF79FFF022000900120049010200024A1
:10120000059007946846FFF789FB08B172B6FEE7C0
:101210000F20CDE90A040C940D9400210AA80E9425
:10122000FFF7C0FA002801D072B6FEE710B010BD7B
:1012300070470000F0B50268164B174C174D4FF081
:101240008047984205D0B84203D0A04201D0A842BE
:1012500003D122F070064A683243984205D0B84262
:1012600003D0A04201D0A84203D122F44074CA683E
:1012700022434C6922F08002224302608A68C262E3
:101280000A688262984201D10969016301214161C2
:10129000F0BD0000002C01400004004000080040A8
:1012A00010B501F01F030121046A99408C430462C8
:1012B000016A9A401143016210BD10B5446A0121D0
:1012C000626A824205D121778069F8B984F83E10BC
:1012D0001CE0A26A824206D1022222778069A8B964
:1012E00084F83F1012E0E26A824206D1042222779B
:1012F000806958B984F8401008E0226B824205D119
:1013000008222277806908B984F841102046FFF747
:10131000C9FD0020207710BD10B5446A616A814282
:1013200001D101200DE0A16A814201D1022008E033
:10133000E16A814201D1042003E0216B814201D1A5
:10134000082020772046FFF7B3FD0020207710BD4E
:1013500010B5446A0121626A824203D1217784F880
:101360003E1019E0A26A824204D10220207784F85C
:101370003F1011E0E26A824204D10420207784F811
:10138000401009E0226B824204D10820207784F8C3
:10139000411001E084F83D102046FFF797FC002043
:1013A000207710BD30B5036A026A22F001020262A2
:1013B0004268846924F073050C682C4323F002050D
:1013C0008B682B430A4DA8420BD123F00805CB684C
:1013D00022F440722B434D6923F0040315438A69BC
:1013E0002A434260846149684163036230BD000062
:1013F000002C014030B5026A036A23F01003036237
:10140000436884690D6824F4E64444EA05248D6841
:1014100022F0200242EA05120B4DA8420ED1CD68FF
:1014200022F0800242EA05124D6923F4406343EA48
:1014300085038D6922F0400243EA8503436084619D
:1014400049688163026230BD002C014030B5036AF7
:10145000026A22F4807202624268C46923F4007353
:1014600024F073050C682C438D6843EA05230C4D6A
:10147000A8420ED1CD6823F4006343EA05234D69E9
:1014800022F4405242EA05128D6923F4806342EA55
:1014900005124260C4614968C163036230BD000047
:1014A000002C014030B5046A026A22F480520262C4
:1014B0004268C3690D6823F4E64343EA05238D6857
:1014C00024F4005444EA0534064DA84204D14D6981
:1014D00022F4804242EA85124260C3614968016495
:1014E000046230BD002C0140FEE700001A4A01EB07
:1014F000410102EB011210B50021A03200FA01F304
:101500001B0201D5402300E0242302EB4104491CC7
:10151000C9B223820829F1D35FF0080100FA01F370
:101520001B0201D5402300E0242302EB4104491CA7
:10153000C9B224F8103C1029F0D3102100FA01F3AD
:101540001B0201D5402300E0242322F81130491C5E
:10155000C9B21829F2D310BD9C0000202DE9F04338
:10156000ADF5697D0F460646994690464FF4687181
:101570006846FEF7DEFD002131B1012907D00229BE
:1015800008D003290BD108E0344628AD07E03C46DB
:1015900034AD04E0444640AD01E04C464CAD002281
:1015A0005FF0000004FA00F31B0201D5402300E0C5
:1015B000242305EB400C401CC0B2ACF810300828C6
:1015C000F0D3082004FA00F31B0201D5402300E009
:1015D000242305EB400C401CC0B22CF8103C102812
:1015E000F0D3102004FA00F31B0201D5402300E0E1
:1015F000242325F81030401CC0B21828F2D3521C06
:10160000D2B2082ACCD3491CC9B20429B4D3B0231E
:101610006A4604210348FFF74DFC0DF5697DBDE8DE
:10162000F0830000100000200907090E002804DBE9
:1016300000F1E02080F80014704700F00F0000F186
:10164000E02080F8141D704702E008C8121F08C18E
:10165000002AFAD170477047002001E001C1121F33
:10166000002AFBD170470000FFF70CF8FFF7B8FD28
:10167000FFF764FDFFF74CFDFFF776FD4FF4C01553
:1016800000212846FFF732FF2C1201212046FFF7E8
:101690002DFF02211820FFF729FF03211748FFF72C
:1016A00025FFB023164A04211648FFF703FC4FF428
:1016B000FA760023182221462846FFF74FFF3046CE
:1016C000FEF7D0FE1823224629460020FFF746FFEA
:1016D0003046FEF7C7FE23462A4600211820FFF7B2
:1016E0003DFF3046FEF7BEFE2B4600221821204665
:1016F000FFF734FF3046FEF7B5FEDAE7181818009A
:101700009C000020100000200102020304050607CF
:1017100008090A0B0C0D0E0F10100000000000004D
:101720000000010203040607080900004C17000826
:101730000000002010000000481600085C17000898
:1017400010000020F00500005816000801000000FD
:0C17500010000000000000000024F40065
:04000005080000ED02
:00000001FF
